:100000000C9403010C9434010C9434010C943401CD
:100010000C9434010C9434010C9434010C9434018C
:100020000C9434010C9434010C9434010C9434017C
:100030000C9434010C9434010C9434010C9434016C
:100040000C9434010C9434010C9434010C9434015C
:100050000C9434010C9434010C9434010C94D704A6
:100060000C9434010C948C070C9460080C943401AB
:100070000C9434010C9434010C9434010C9434012C
:100080000C9434010C9434010C9434010C9434011C
:100090000C94B9070C949F080C9434010C9434010F
:1000A0000C9434010C9434010C9434010C943401FC
:1000B0000C9434010C9434010C9434010C943401EC
:1000C0000C9434010C9434010C9434010C94E60724
:1000D0000C94DE080C9434010C9413080C941D0944
:1000E0000C9434010000090A02080B0C0D070603EA
:1000F00004010000000000000000000000000000FB
:1001000000000000000000000000000000000000EF
:1001100011100F00000000000000000000000000AF
:100120000000000000000000000001021020200874
:100130000810204010204080020102010804020142
:1001400001020408102040808040201008040201B1
:10015000800402018040201008040201080402010A
:100160000102040810204080010204081020408091
:1001700005050505070508080808020202020A0A23
:100180000808040404040101010101010101030341
:10019000030303030303040707070C0C0C0C0C0CEC
:1001A0000C0C0202020206060606060606060B0BE9
:1001B0000B0B0B0B0B0B000020002300260029006B
:1001C0002C002F003200000100000301060109018C
:1001D00000002200250028002B002E0031003400F2
:1001E00002010000050108010B01000021002400AC
:1001F00027002A002D003000330001010000040117
:1002000007010A01DC0911241FBECFEFD1E2DEBFD6
:10021000CDBF00E00CBF12E0A0E0B2E0E4EAFEE1F6
:1002200000E00BBF02C007900D92A23AB107D9F7C8
:1002300015E0A2EAB2E001C01D92AF34B107E1F7C8
:1002400012E0C6E0D2E000E006C022970109FE01FC
:100250000BBF0E94DE0CC430D10780E00807A9F76D
:100260000E946A0B0C94500F0C9400000C941C0C10
:1002700040E052EC61E070E08CE093E00E945C09A9
:1002800062E08AE20E943F0661E089E00E943F0648
:1002900061E086E00E943F0661E087E00E943F0641
:1002A00061E088E00E943F0661E08DE00E943F0629
:1002B00061E08AE00E943F0661E08BE00E943F0619
:1002C00061E08CE00E943F0662E084E30E943F060A
:1002D00062E080E30E943F0662E08EE20E943F06F9
:1002E00062E082E30E943F0662E08CE20C943F06EB
:1002F00061E08CE00E94770661E08BE00E94770667
:1003000061E08AE00E94770661E08DE00E94770656
:1003100061E088E00E94770661E087E00E9477064E
:1003200061E086E00E94770661E089E00E9477063E
:1003300066E072E08CE093E00C94680B61E172E09F
:100340008CE093E00E94680B1092A5021092A40228
:100350001092A3021092A2020E94780180E090E025
:100360000E94500F0C94770B0F931F93CF93DF9342
:10037000CDB7DEB72E970FB6F894DEBF0FBECDBF58
:100380008091A2029091A3028330910511F460E064
:1003900004C08230910571F461E08CE00E94770620
:1003A00060E08BE00E94770660E08AE00E947706BA
:1003B00060E034C08130910531F461E08CE00E944E
:1003C000770661E0EECF009751F461E08CE00E9487
:1003D000770661E08BE00E94770661E01BC08F3FEB
:1003E0002FEF920731F461E08CE00E94770661E024
:1003F0000DC08E3F2FEF920711F461E003C003960A
:1004000099F560E08CE00E94770660E08BE00E9446
:10041000770660E08AE00E94770661E08DE00E9446
:1004200077060091A2021091A3026FE272E0CE0162
:1004300008960E94E80BBE01685F7F4FCE010196CF
:100440000E943601B801CE0101960E949A0CBC01AF
:100450008CE093E00E94320BCE0101960E94B20123
:10046000CE0108960E94770B8091A4029091A5027C
:100470008330910511F460E004C08230910531F4BD
:1004800061E088E00E94770660E008C08130910555
:1004900071F461E088E00E94770661E087E00E94E5
:1004A000770660E086E00E94770660E02BC0009748
:1004B00051F461E088E00E94770661E087E00E94E5
:1004C000770661E01BC08F3F2FEF920731F461E0A8
:1004D00088E00E94770661E00DC08E3F2FEF920703
:1004E00011F461E003C0039699F560E088E00E9492
:1004F000770660E087E00E94770660E086E00E9471
:10050000770661E089E00E9477060091A4021091CD
:10051000A5026AE372E0CE0108960E94E80BBE01D4
:10052000685F7F4FCE0101960E943601B801CE016F
:1005300001960E949A0CBC018CE093E00E94320B61
:10054000CE0101960E94B201CE0108960E94770B5F
:100550002E960FB6F894DEBF0FBECDBFDF91CF91C0
:100560001F910F9108958091A4029091A50283306C
:10057000910534F401969093A5028093A402089506
:100580008091A2029091A3028E3F2FEF92072CF050
:1005900001979093A3028093A20208958091A202F2
:1005A0009091A3028330910534F401969093A302B5
:1005B0008093A20208958091A4029091A5028E3F9B
:1005C0002FEF92072CF001979093A5028093A4023D
:1005D0000895EF92FF920F931F93CF93DF93CDB7C0
:1005E000DEB765970FB6F894DEBF0FBECDBF64E4EB
:1005F00072E08CE093E00E94680B8091A4029091DD
:10060000A502833091052CF401969093A502809366
:10061000A4028091A2029091A302833091052CF450
:1006200001969093A3028093A2020091A2021091DE
:10063000A30263E372E0CE0101960E94E80BE09012
:10064000A402F090A5026EE372E0CE010F960E9424
:10065000E80BBE01615F7F4FCE0108960E94360114
:10066000B701CE0108960E949A0CBE016F5F7F4FC2
:100670000E94840CB8010E949A0CBC018CE093E0AB
:100680000E94320BCE0108960E94B201CE010F9655
:100690000E94770BCE0101960E94770B0E94B40155
:1006A00065960FB6F894DEBF0FBECDBFDF91CF9138
:1006B0001F910F91FF90EF900895EF92FF920F938B
:1006C0001F93CF93DF93CDB7DEB765970FB6F8943E
:1006D000DEBF0FBECDBF60E572E08CE093E00E940C
:1006E000680B8091A4029091A5028E3F2FEF920794
:1006F0002CF001979093A5028093A4028091A2020E
:100700009091A3028E3F2FEF92072CF001979093C8
:10071000A3028093A2020091A2021091A30263E3BC
:1007200072E0CE0101960E94E80BE090A402F090E6
:10073000A5026EE372E0CE010F960E94E80BBE01A7
:10074000615F7F4FCE0108960E943601B701CE014E
:1007500008960E949A0CBE016F5F7F4F0E94840C26
:10076000B8010E949A0CBC018CE093E00E94320B0D
:10077000CE0108960E94B201CE010F960E94770B1F
:10078000CE0101960E94770B0E94B40165960FB6C8
:10079000F894DEBF0FBECDBFDF91CF911F910F91B7
:1007A000FF90EF900895EF92FF920F931F93CF93D6
:1007B000DF93CDB7DEB765970FB6F894DEBF0FBEF7
:1007C000CDBF6EE572E08CE093E00E94680B0E9462
:1007D000CE020091A2021091A30263E372E0CE0167
:1007E00001960E94E80BE090A402F090A5026EE34F
:1007F00072E0CE010F960E94E80BBE01615F7F4F51
:10080000CE0108960E943601B701CE0108960E94DB
:100810009A0CBE016F5F7F4F0E94840CB8010E944A
:100820009A0CBC018CE093E00E94320BCE0108963A
:100830000E94B201CE010F960E94770BCE01019665
:100840000E94770B0E94B40165960FB6F894DEBF44
:100850000FBECDBFDF91CF911F910F91FF90EF9011
:100860000895EF92FF920F931F93CF93DF93CDB72D
:10087000DEB765970FB6F894DEBF0FBECDBF6CE64E
:1008800072E08CE093E00E94680B0E94B30200913A
:10089000A2021091A30263E372E0CE0101960E94CE
:1008A000E80BE090A402F090A5026EE372E0CE01A6
:1008B0000F960E94E80BBE01615F7F4FCE01089644
:1008C0000E943601B701CE0108960E949A0CBE0123
:1008D0006F5F7F4F0E94840CB8010E949A0CBC018C
:1008E0008CE093E00E94320BCE0108960E94B20188
:1008F000CE010F960E94770BCE0101960E94770BD6
:100900000E94B40165960FB6F894DEBF0FBECDBF4E
:10091000DF91CF911F910F91FF90EF9008958AE2A0
:100920000E94AE06892B09F041C00E9478016BE756
:1009300072E08CE093E00E94680B1092A502109286
:10094000A4021092A3021092A2020E94B40129C034
:100950008CE20E94AE06892B11F40E949E0184E372
:100960000E94AE06892B11F40E94E90280E30E94E6
:10097000AE06892B11F40E945D038EE20E94AE0642
:10098000892B11F40E94D30382E30E94AE06892BC7
:1009900011F40E94310464EF71E080E090E00E9465
:1009A0004B058AE20E94AE06892B91F208951F92B0
:1009B0000F920FB60F9211242F933F938F939F9313
:1009C000AF93BF938091A6029091A702A091A80235
:1009D000B091A9023091AE02232F2D5F2D3720F464
:1009E0000196A11DB11D05C0232F2A570296A11DF6
:1009F000B11D2093AE028093A6029093A702A0930C
:100A0000A802B093A9028091AA029091AB02A09192
:100A1000AC02B091AD020196A11DB11D8093AA0256
:100A20009093AB02A093AC02B093AD02BF91AF9193
:100A30009F918F913F912F910F900FBE0F901F901C
:100A400018950F931F939FB7F8940091AA021091E5
:100A5000AB022091AC023091AD0286B5A89B06C0D6
:100A60008F3F21F00F5F1F4F2F4F3F4F9FBF322F00
:100A7000212F102F0027080F111D211D311D42E0CD
:100A8000000F111F221F331F4A95D1F7B801C9016A
:100A90001F910F910895CF92DF92EF92FF92CF9323
:100AA000DF936B017C010E942105EB010EC00E94C7
:100AB00021056C1B7D0B683E734038F081E0C81A3D
:100AC000D108E108F108C851DC4FC114D104E10498
:100AD000F10469F7DF91CF91FF90EF90DF90CF9015
:100AE0000895789484B5826084BD84B5816084BDA6
:100AF00085B5826085BD85B5816085BDEEE6F0E097
:100B0000808181608083E1E8F0E0108280818260F2
:100B10008083808181608083E0E8F0E08081816073
:100B20008083E1EBF0E0808184608083E0EBF0E0A3
:100B3000808181608083E1E9F0E080818260808350
:100B4000808181608083E0E9F0E080818160808342
:100B5000E1EAF0E08081826080838081816080832F
:100B6000E0EAF0E0808181608083E1E2F1E0808171
:100B700082608083808181608083E0E2F1E0808117
:100B800081608083EAE7F0E08081846080838081F7
:100B9000826080838081816080838081806880839F
:100BA0001092C1000895893009F443C088F484305C
:100BB00029F138F4823059F1E8F4813009F05EC04F
:100BC00023C0873061F188F5863009F057C023C013
:100BD0008D3009F440C020F48B30A9F1C0F52DC050
:100BE000803109F442C0813109F443C08F3009F0EB
:100BF00045C037C0809180008F7703C0809180000E
:100C00008F7D80938000089584B58F7702C084B56E
:100C10008F7D84BD08958091B0008F7703C080914F
:100C2000B0008F7D8093B0000895809190008F7701
:100C300007C0809190008F7D03C080919000877FD6
:100C40008093900008958091A0008F7707C08091D5
:100C5000A0008F7D03C08091A000877F8093A000BB
:100C60000895809120018F7707C0809120018F7DAA
:100C700003C080912001877F809320010895CF9346
:100C8000DF9390E0FC01E65DFE4F4491FC01E059EA
:100C9000FE4F8491882341F190E0880F991FFC0159
:100CA000E651FE4F25913491D90180539E4FFC01AE
:100CB00085919491C82FD92F9FB7F8948C91611189
:100CC00006C0409584238C938881842308C06230B9
:100CD00041F4242F209582238C938881842B888350
:100CE00002C0842B8C939FBFDF91CF9108950F9307
:100CF0001F93CF93DF931F92CDB7DEB7282F30E03D
:100D0000F901EC51FF4F8491F901E65DFE4F14911A
:100D1000F901E059FE4F04910023D1F0882321F01E
:100D200069830E94D3056981E02FF0E0EE0FFF1F79
:100D3000E053FE4F85919491DC019FB7F8948C911C
:100D4000611103C01095812301C0812B8C939FBF3B
:100D50000F90DF91CF911F910F910895CF93DF9363
:100D6000282F30E0F901EC51FF4F8491F901E65D45
:100D7000FE4FD491F901E059FE4FC491CC2389F084
:100D800081110E94D305EC2FF0E0EE0FFF1FEA5413
:100D9000FE4F85919491DC018C918D2321E030E010
:100DA00011F420E030E0C901DF91CF910895FC01FA
:100DB00084859585FC01E05CFF4F20813181FC0139
:100DC000EE5BFF4F80819181281B390B2F733327F6
:100DD000C9010895FC0184859585FC01E05CFF4F05
:100DE00040815181FC01EE5BFF4F20813181421730
:100DF000530741F00190F081E02DE80FF91F2081A9
:100E000030E002C02FEF3FEFC9010895FC01848557
:100E10009585FC01E05CFF4F40815181FC01EE5B58
:100E2000FF4F208131814217530781F0A081B181AA
:100E3000A80FB91F8C91208131812F5F3F4F2F73F5
:100E4000332731832083282F30E002C02FEF3FEF7C
:100E5000C9010895FC0186859785FC01E05CFF4F80
:100E6000DC01AE5BBF4F408151812D913C911197C8
:100E700042175307C1F70895CF93DF93FC0186858E
:100E80009785DC01A05CBF4F2D913C9111972F5F9E
:100E90003F4F2F733327EC01CE5BDF4F48815981E1
:100EA00024173507D9F30D90BC91A02DA80FB91FB9
:100EB0006C93A685B785A05CBF4F11963C932E938B
:100EC000A689B7892C9181E090E0058C02C0880F3B
:100ED000991F0A94E2F7282B2C9381E090E0DF9190
:100EE000CF910895FB01E05CFF4F208131812F5F9E
:100EF0003F4F2F733327DB01AE5BBF4F4D915C91AA
:100F00002417350739F0A081B181A60FB71F8C9344
:100F100031832083089508951F920F920FB60F9288
:100F200011240BB60F922F933F934F935F936F93C0
:100F30007F938F939F93AF93BF93EF93FF93809192
:100F4000C60067E075E00E947207FF91EF91BF91C4
:100F5000AF919F918F917F916F915F914F913F9151
:100F60002F910F900BBE0F900FBE0F901F901895F2
:100F700008951F920F920FB60F9211240BB60F9285
:100F80002F933F934F935F936F937F938F939F9391
:100F9000AF93BF93EF93FF938091CE006FE774E020
:100FA0000E947207FF91EF91BF91AF919F918F9136
:100FB0007F916F915F914F913F912F910F900BBE59
:100FC0000F900FBE0F901F90189508951F920F92CB
:100FD0000FB60F9211240BB60F922F933F934F939E
:100FE0005F936F937F938F939F93AF93BF93EF9391
:100FF000FF938091D60067EF73E00E947207FF9124
:10100000EF91BF91AF919F918F917F916F915F9180
:101010004F913F912F910F900BBE0F900FBE0F90ED
:101020001F90189508951F920F920FB60F921124DA
:101030000BB60F922F933F934F935F936F937F93D2
:101040008F939F93AF93BF93EF93FF93809136015C
:101050006FE673E00E947207FF91EF91BF91AF912D
:101060009F918F917F916F915F914F913F912F91C0
:101070000F900BBE0F900FBE0F901F9018958CE035
:1010800093E00E94D706892B11F00E948B078DEE0A
:1010900092E00E94D706892B11F00E94B8078EECCF
:1010A00092E00E94D706892B11F00E94E5078FEA93
:1010B00092E00E94D706892B11F00C941208089533
:1010C0001F920F920FB60F9211240BB60F922F930F
:1010D0003F938F939F93EF93FF932091030530915C
:1010E000040580910505909106052817390731F40C
:1010F0008091C1008F7D8093C10014C0E0910505EF
:10110000F0910605ED53FB4F2081809105059091EC
:10111000060501968F739927909306058093050520
:101120002093C600FF91EF919F918F913F912F9156
:101130000F900BBE0F900FBE0F901F9018951F922F
:101140000F920FB60F9211240BB60F922F933F936D
:101150008F939F93EF93FF9320917B0430917C04B6
:1011600080917D0490917E042817390731F4809195
:10117000C9008F7D8093C90014C0E0917D04F09177
:101180007E04E55CFB4F208180917D0490917E047C
:1011900001968F73992790937E0480937D0420930A
:1011A000CE00FF91EF919F918F913F912F910F90E2
:1011B0000BBE0F900FBE0F901F9018951F920F92AD
:1011C0000FB60F9211240BB60F922F933F938F936C
:1011D0009F93EF93FF932091F3033091F403809159
:1011E000F5039091F6032817390731F48091D10067
:1011F0008F7D8093D10014C0E091F503F091F60348
:10120000ED54FC4F20818091F5039091F6030196F7
:101210008F7399279093F6038093F5032093D6005C
:10122000FF91EF919F918F913F912F910F900BBE66
:101230000F900FBE0F901F9018951F920F920FB630
:101240000F9211240BB60F922F933F938F939F937E
:10125000EF93FF9320916B0330916C0380916D03AA
:1012600090916E032817390731F4809131018F7DF9
:101270008093310114C0E0916D03F0916E03E55D40
:10128000FC4F208180916D0390916E0301968F73C6
:10129000992790936E0380936D0320933601FF91FD
:1012A000EF919F918F913F912F910F900BBE0F90D7
:1012B0000FBE0F901F901895CF92DF92EF92FF9282
:1012C000CF93DF93EC016A017B01411581EE580752
:1012D00061057105F9F0EC89FD8981E090E00E8CE3
:1012E00002C0880F991F0A94E2F7808360E079E0DA
:1012F0008DE390E0A70196010E94BC0C21503109BA
:10130000410951095695479537952795211580E153
:10131000380798F0EC89FD89108260E874E88EE166
:1013200090E0A70196010E94BC0C215031094109AF
:1013300051095695479537952795E889F98930835E
:10134000EA89FB892083EE89FF89408181E090E072
:101350009C010A8C02C0220F331F0A94E2F7422B31
:101360004083EE89FF8940819C010B8C02C0220FD3
:10137000331F0A94E2F7422B4083EE89FF894081B4
:101380009C010C8C02C0220F331F0A94E2F7422BFF
:101390004083EE89FF8920810D8C02C0880F991F40
:1013A0000A94E2F7809582238083DF91CF91FF90AA
:1013B000EF90DF90CF900895CF9310920F0310928B
:1013C0000E0388EE93E0A0E0B0E0809310039093CA
:1013D0001103A0931203B093130325E932E0309375
:1013E0000D0320930C0347E055E0509319034093FD
:1013F000180343EC54E050931B0340931A0345EC4D
:1014000050E050931D0340931C0344EC50E0509374
:101410001F0340931E0340EC50E050932103409380
:10142000200341EC50E0509323034093220346EC09
:1014300050E05093250340932403C4E0C093260357
:10144000F3E0F0932703E7E0E093280375E070935F
:10145000290361E060932A031092F0021092EF02D8
:101460008093F1029093F202A093F302B093F402FE
:101470003093EE022093ED024FE754E05093FA02CE
:101480004093F9024BE354E05093FC024093FB027B
:101490004DEC50E05093FE024093FD024CEC50E0C6
:1014A000509300034093FF0248EC50E05093020336
:1014B0004093010349EC50E050930403409303032D
:1014C0004EEC50E05093060340930503C09307038E
:1014D000F0930803E093090370930A0360930B03EE
:1014E0001092D1021092D0028093D2029093D30234
:1014F000A093D402B093D5023093CF022093CE02B2
:1015000047EF53E05093DB024093DA0243EB53E0A2
:101510005093DD024093DC0245ED50E05093DF0232
:101520004093DE0244ED50E05093E1024093E0022C
:1015300040ED50E05093E3024093E20241ED50E071
:101540005093E5024093E40246ED50E05093E702E9
:101550004093E602C093E802F093E902E093EA02C6
:101560007093EB026093EC021092B2021092B102FF
:101570008093B3029093B402A093B502B093B602E5
:101580003093B0022093AF028FE693E09093BC02B9
:101590008093BB028BE293E09093BE028093BD02E6
:1015A00085E391E09093C0028093BF0284E391E0D1
:1015B0009093C2028093C10280E391E09093C402B1
:1015C0008093C30281E391E09093C6028093C502A9
:1015D00086E391E09093C8028093C702C093C9024A
:1015E000F093CA02E093CB027093CC026093CD02D9
:1015F000CF910895CF92DF92EF92FF920F931F93B6
:10160000CF93DF936C01EB017A01E60EF71E00E049
:1016100010E00BC06991D601ED91FC910190F08131
:10162000E02DC6011995080F191FCE15DF0591F79A
:10163000C801DF91CF911F910F91FF90EF90DF9044
:10164000CF900895DB010D900020E9F7AD014150E6
:101650005109461B570BDC01ED91FC910280F3818F
:10166000E02D1994AF92BF92CF92DF92EF92FF924A
:101670000F931F93CF93DF937C016B0100E010E089
:10168000C0E0D0E011C0D701ED91FC91A080B18005
:10169000B801C6010E94AB0C682FC701F50119956E
:1016A000C80FD91F0F5F1F4FD60114968D919C91C3
:1016B00015970817190738F3CE01DF91CF911F91C5
:1016C0000F91FF90EF90DF90CF90BF90AF90089573
:1016D0000C94220B0E9471050E943801CFE3D8E0E0
:1016E0000E948F042097E1F30E943F08F9CFFC018C
:1016F000808191810C947D0DCF93DF93EC018881E3
:101700009981009711F00E947D0D198218821D8227
:101710001C821B821A82DF91CF9108950F931F9331
:10172000CF93DF93EC018B016F5F7F4F88819981AD
:101730000E941B0E009731F0998388831B830A83D4
:1017400081E001C080E0DF91CF911F910F9108955A
:10175000CF93DF93EC0188819981892B31F08A81C5
:101760009B818617970708F00CC0CE010E948E0B54
:10177000882349F08C819D81892B19F4E881F981B6
:10178000108281E001C080E0DF91CF910895EF9257
:10179000FF920F931F93CF93DF93EC017B018A019C
:1017A000BA010E94A80B811104C0CE010E947C0BDB
:1017B00007C01D830C83B701888199810E94040FA3
:1017C000CE01DF91CF911F910F91FF90EF9008957F
:1017D000DC0111961C921E9213961C921E92129777
:1017E00015961C921E92149716961C9261157105FF
:1017F00059F0DB010D900020E9F7AD01415051098E
:10180000461B570B0C94C70B0895CF93DF93EC0145
:10181000FB018617970761F0608171816115710581
:1018200029F0448155810E94C70B02C00E947C0BA5
:10183000CE01DF91CF910895FC01118210821382B5
:1018400012821582148216820C94050CEF92FF927C
:101850000F931F93CF93DF93EC017B010C811D81CC
:101860006115710511F480E016C04115510591F024
:10187000040F151FB8010E94A80B8823A1F328812B
:1018800039818C819D81B701820F931F0E94040FC3
:101890001D830C8381E0DF91CF911F910F91FF9009
:1018A000EF900895EF92FF920F931F93CF93DF93E2
:1018B000CDB7DEB727970FB6F894DEBF0FBECDBF0A
:1018C0007C01CB014AE050E08E010F5F1F4FB80151
:1018D0000E940B0FF80101900020E9F7AF01415081
:1018E0005109401B510BB801C7010E94260C2796D5
:1018F0000FB6F894DEBF0FBECDBFDF91CF911F9121
:101900000F91FF90EF900895CF93DF93D82FC92FB9
:10191000FB0144815581608171810E94260C8111F7
:1019200004C08D2F9C2F0E947C0B8D2F9C2FDF914C
:10193000CF910895CF93DF93D82FC92F0E94520CD7
:10194000811104C08D2F9C2F0E947C0B8D2F9C2F0A
:10195000DF91CF910895FC012481358162177307CF
:1019600048F480819181009729F0FC01E60FF71F70
:101970008081089580E00895A1E21A2EAA1BBB1B66
:10198000FD010DC0AA1FBB1FEE1FFF1FA217B3074B
:10199000E407F50720F0A21BB30BE40BF50B661F61
:1019A000771F881F991F1A9469F760957095809525
:1019B00090959B01AC01BD01CF0108950790F69170
:1019C000E02D19940F931F93CF93DF9382309105ED
:1019D00010F482E090E0E0914D05F0914E0520E09A
:1019E00030E0C0E0D0E023C0408151814817590762
:1019F000A8F04817590761F482819381209719F064
:101A00009B838A832EC090934E0580934D0529C0F9
:101A10002115310529F04217530710F0A90102C022
:101A2000BE01DF0102811381EF019A01F8013097B5
:101A3000D9F62115310509F1281B390B2430310560
:101A400090F412968D919C9113976115710521F078
:101A5000FB019383828304C090934E0580934D05D0
:101A6000FD01329644C0FD01E20FF31F8193919373
:101A7000225031092D933C933AC020914B0530916F
:101A80004C05232B41F42091020230910302309344
:101A90004C0520934B052091000230910102211545
:101AA000310541F42DB73EB7409104025091050233
:101AB000241B350BE0914B05F0914C05E217F30721
:101AC000A0F42E1B3F0B2817390778F0AC014E5FAE
:101AD0005F4F2417350748F04E0F5F1F50934C059A
:101AE00040934B058193919302C0E0E0F0E0CF0179
:101AF000DF91CF911F910F910895EF92FF920F9375
:101B00001F93CF93DF93009709F48EC0DC011297E7
:101B100013961C921E921297E0904D05F0904E0580
:101B2000E114F10489F42D913C911197280F391F8C
:101B300080914B0590914C058217930789F5B093DE
:101B40004C05A0934B0570C0E70120E030E001C0D8
:101B5000EA01CA17DB0738F44A815B819E0141150F
:101B60005105B1F722C0AC0142505109FA01D383AB
:101B7000C28300811181BC01600F711F6C177D074A
:101B800061F468817981600F711F6E5F7F4F71838F
:101B900060836A817B81738362832115310529F417
:101BA000B0934E05A0934D053FC0F901B383A283C6
:101BB000E90149915991C40FD51FAC17BD0771F4C4
:101BC000DC019E918E91840F951F029691838083F4
:101BD00012968D919C91139793838283A0E0B0E03D
:101BE00002C0D7017C01F701828193810097C9F778
:101BF000C701029620813181820F931F20914B05EE
:101C000030914C052817390779F4109729F4109270
:101C10004E0510924D0504C013961C921E92129709
:101C2000F0924C05E0924B05DF91CF911F910F91FF
:101C3000FF90EF9008958F929F92AF92BF92CF92B4
:101C4000DF92EF92FF920F931F93CF93DF93EC01FC
:101C5000009779F4CB01DF91CF911F910F91FF9005
:101C6000EF90DF90CF90BF90AF909F908F900C94AB
:101C7000E20CDC01A60FB71FFC013297AE17BF07BD
:101C800018F4C0E0D0E0A9C0008111810617170741
:101C9000B0F00530110508F4A0C0C80104978617FC
:101CA000970708F49AC002501109061B170B0D93F1
:101CB0001D9371836083CD010E947D0D8EC06B01E9
:101CC000C01AD10A7C01E00EF11EE0914D05F091A1
:101CD0004E0520E030E080E090E048C0EE15FF05C2
:101CE000D1F580809180540142E0A40EB11CAC1467
:101CF000BD0488F17401EC18FD08670122E0C20EF2
:101D0000D11C9E012250310945E0C416D10478F05F
:101D10004281538113965C934E9312971196FC92D5
:101D2000EE92F901718360833A2F2B2F09C00E5F69
:101D30001F4F080D191DD9010D931C93328123816A
:101D4000009721F0FC013283238347C030934D0577
:101D500020934E0542C0808191812817390708F4ED
:101D60009C0152814381CF01E52FF42F309709F078
:101D7000B5CF80914B0590914C058E159F05F1F4E0
:101D800026173707D8F4809100029091010200973E
:101D900041F48DB79EB72091040230910502821B59
:101DA000930BA817B90708F06CCFB0934C05A0931C
:101DB0004B05FE013297718360830FC0CB010E94F7
:101DC000E20C7C01009709F45CCFA801BE010E94DF
:101DD000FB0ECE010E947D0DE701CE01DF91CF9178
:101DE0001F910F91FF90EF90DF90CF90BF90AF9039
:101DF0009F908F900895FB01DC0102C001900D922D
:101E000041505040D8F70895FB01DC0101900D923C
:101E10000020E1F70895FB019F01E8944230C4F0EF
:101E20004532B4F44A3029F497FB1EF4909581951D
:101E30009F4F642F77270E943C0F805D8A330CF000
:101E4000895D8193CB010097A1F716F45DE2519370
:101E50001082C9010C942C0FDC01FC01672F7191D9
:101E60007723E1F7329704C07C916D937083629180
:101E7000AE17BF07C8F30895AA1BBB1B51E107C0EB
:101E8000AA1FBB1FA617B70710F0A61BB70B881F0A
:101E9000991F5A95A9F780959095BC01CD01089599
:041EA000F894FFCFE4
:101EA40000004F0520004D6F746F7273206F6666DB
:101EB40000456D657267656E63792073746F702079
:101EC400627574746F6E2070726573736564005309
:101ED40065742052696768743A00536574204C65D0
:101EE40066743A004A6F79737469636B2075700085
:101EF4004A6F79737469636B20646F776E004A6FFD
:101F040079737469636B206C656674004A6F7973C6
:101F14007469636B207269676874007261667442E5
:101F240065727279206D616E75616C206D6F646588
:101F340000000000003C07FA0AD7060607EA062A52
:021F4400070094
:00000001FF
