:100000000C9403010C9434010C9434010C943401CD
:100010000C9434010C9434010C9434010C9434018C
:100020000C9434010C9434010C9434010C9434017C
:100030000C9434010C9434010C9434010C9434016C
:100040000C9434010C9434010C9434010C9434015C
:100050000C9434010C9434010C9434010C94DC04A1
:100060000C9434010C9491070C9465080C943401A1
:100070000C9434010C9434010C9434010C9434012C
:100080000C9434010C9434010C9434010C9434011C
:100090000C94BE070C94A4080C9434010C94340105
:1000A0000C9434010C9434010C9434010C943401FC
:1000B0000C9434010C9434010C9434010C943401EC
:1000C0000C9434010C9434010C9434010C94EB071F
:1000D0000C94E3080C9434010C9418080C94220935
:1000E0000C9434010000090A02080B0C0D070603EA
:1000F00004010000000000000000000000000000FB
:1001000000000000000000000000000000000000EF
:1001100011100F00000000000000000000000000AF
:100120000000000000000000000001021020200874
:100130000810204010204080020102010804020142
:1001400001020408102040808040201008040201B1
:10015000800402018040201008040201080402010A
:100160000102040810204080010204081020408091
:1001700005050505070508080808020202020A0A23
:100180000808040404040101010101010101030341
:10019000030303030303040707070C0C0C0C0C0CEC
:1001A0000C0C0202020206060606060606060B0BE9
:1001B0000B0B0B0B0B0B000020002300260029006B
:1001C0002C002F003200000100000301060109018C
:1001D00000002200250028002B002E0031003400F2
:1001E00002010000050108010B01000021002400AC
:1001F00027002A002D003000330001010000040117
:1002000007010A01E10911241FBECFEFD1E2DEBFD1
:10021000CDBF00E00CBF12E0A0E0B2E0EEEAFEE1EC
:1002200000E00BBF02C007900D92A43BB107D9F7C5
:1002300015E0A4EBB2E001C01D92A136B107E1F7D1
:1002400012E0C6E0D2E000E006C022970109FE01FC
:100250000BBF0E94E30CC430D10780E00807A9F768
:100260000E946F0B0C94550F0C9400000C94210C01
:1002700040E052EC61E070E08EE193E00E946109A1
:1002800062E08CE20E94440661E088E00E9444063D
:1002900061E089E00E94440661E08AE00E94440631
:1002A00061E087E00E94440661E086E00E94440627
:1002B00061E08CE00E94440661E08DE00E9444060B
:1002C00061E08BE00E94440662E084E30E94440601
:1002D00062E082E30E94440662E080E30E944406FA
:1002E00062E08EE20E94440662E08AE20C944406D8
:1002F00061E08BE00E947C0661E08DE00E947C065C
:1003000061E08CE00E947C0661E086E00E947C0651
:1003100061E087E00E947C0661E08AE00E947C0642
:1003200061E089E00E947C0661E088E00E947C0632
:1003300066E072E08EE193E00C946D0B61E172E097
:100340008EE193E00E946D0B1092B7021092B602FC
:100350001092B5021092B4020E94780180E090E001
:100360000E94550F0C947C0B0F931F93CF93DF9338
:10037000CDB7DEB72E970FB6F894DEBF0FBECDBF58
:100380008091B4029091B5028330910511F460E040
:1003900004C08230910571F461E08BE00E947C061C
:1003A00060E08DE00E947C0660E08CE00E947C06AC
:1003B00061E034C08130910531F461E08BE00E944E
:1003C0007C0661E0EECF009751F461E08BE00E9483
:1003D0007C0661E08DE00E947C0661E0E6CF8F3F05
:1003E0002FEF920731F461E08BE00E947C0661E020
:1003F0000DC08E3F2FEF920711F461E003C003960A
:1004000099F560E08BE00E947C0660E08DE00E9440
:100410007C0660E08CE00E947C0660E086E00E9442
:100420007C060091B4021091B50260E372E0CE0147
:1004300008960E94ED0BBE01685F7F4FCE010196CA
:100440000E943601B801CE0101960E949F0CBC01AA
:100450008EE193E00E94370BCE0101960E94B2011B
:10046000CE0108960E947C0B8091B6029091B70253
:100470008330910511F460E004C08230910531F4BD
:1004800061E087E00E947C0660E008C08130910551
:1004900071F461E087E00E947C0661E08AE00E94DE
:1004A0007C0660E089E00E947C0661E02BC000973A
:1004B00051F461E087E00E947C0661E08AE00E94DE
:1004C0007C0661E01BC08F3F2FEF920731F461E0A3
:1004D00087E00E947C0661E00DC08E3F2FEF9207FF
:1004E00011F461E003C0039699F560E087E00E9493
:1004F0007C0660E08AE00E947C0660E089E00E9461
:100500007C0660E088E00E947C060091B6021091B3
:10051000B7026CE372E0CE0108960E94ED0BBE01BB
:10052000685F7F4FCE0101960E943601B801CE016F
:1005300001960E949F0CBC018EE193E00E94370B54
:10054000CE0101960E94B201CE0108960E947C0B5A
:100550002E960FB6F894DEBF0FBECDBFDF91CF91C0
:100560001F910F9108958091B6029091B702833048
:10057000910534F401969093B7028093B6020895E2
:100580008091B4029091B5028E3F2FEF92072CF02C
:1005900001979093B5028093B40208958091B402BC
:1005A0009091B5028330910534F401969093B50291
:1005B0008093B40208958091B6029091B7028E3F65
:1005C0002FEF92072CF001979093B7028093B60219
:1005D0000895EF92FF920F931F93CF93DF93CDB7C0
:1005E000DEB765970FB6F894DEBF0FBECDBF67E4E8
:1005F00072E08EE193E00E946D0B8091B6029091C3
:10060000B702833091052CF401969093B702809342
:10061000B6028091B4029091B502833091052CF41A
:1006200001969093B5028093B4020091B4021091A8
:10063000B50265E372E0CE0101960E94ED0BE090F9
:10064000B602F090B70261E472E0CE010F960E940C
:10065000ED0BBE01615F7F4FCE0108960E9436010F
:10066000B701CE0108960E949F0CBE016F5F7F4FBD
:100670000E94890CB8010E949F0CBC018EE193E09E
:100680000E94370BCE0108960E94B201CE010F9650
:100690000E947C0BCE0101960E947C0B0E94B4014B
:1006A00065960FB6F894DEBF0FBECDBFDF91CF9138
:1006B0001F910F91FF90EF900895EF92FF920F938B
:1006C0001F93CF93DF93CDB7DEB765970FB6F8943E
:1006D000DEBF0FBECDBF64E572E08EE193E00E9405
:1006E0006D0B8091B6029091B7028E3F2FEF92076B
:1006F0002CF001979093B7028093B6028091B402D8
:100700009091B5028E3F2FEF92072CF001979093B6
:10071000B5028093B4020091B4021091B50265E372
:1007200072E0CE0101960E94ED0BE090B602F090CF
:10073000B70261E472E0CE010F960E94ED0BBE019C
:10074000615F7F4FCE0108960E943601B701CE014E
:1007500008960E949F0CBE016F5F7F4F0E94890C1C
:10076000B8010E949F0CBC018EE193E00E94370B00
:10077000CE0108960E94B201CE010F960E947C0B1A
:10078000CE0101960E947C0B0E94B40165960FB6C3
:10079000F894DEBF0FBECDBFDF91CF911F910F91B7
:1007A000FF90EF900895EF92FF920F931F93CF93D6
:1007B000DF93CDB7DEB765970FB6F894DEBF0FBEF7
:1007C000CDBF63E672E08EE193E00E946D0B0E9464
:1007D000CE020091B4021091B50265E372E0CE0141
:1007E00001960E94ED0BE090B602F090B70261E432
:1007F00072E0CE010F960E94ED0BBE01615F7F4F4C
:10080000CE0108960E943601B701CE0108960E94DB
:100810009F0CBE016F5F7F4F0E94890CB8010E9440
:100820009F0CBC018EE193E00E94370BCE0108962D
:100830000E94B201CE010F960E947C0BCE01019660
:100840000E947C0B0E94B40165960FB6F894DEBF3F
:100850000FBECDBFDF91CF911F910F91FF90EF9011
:100860000895EF92FF920F931F93CF93DF93CDB72D
:10087000DEB765970FB6F894DEBF0FBECDBF62E757
:1008800072E08EE193E00E946D0B0E94B302009132
:10089000B4021091B50265E372E0CE0101960E94A8
:1008A000ED0BE090B602F090B70261E472E0CE0189
:1008B0000F960E94ED0BBE01615F7F4FCE0108963F
:1008C0000E943601B701CE0108960E949F0CBE011E
:1008D0006F5F7F4F0E94890CB8010E949F0CBC0182
:1008E0008EE193E00E94370BCE0108960E94B20180
:1008F000CE010F960E947C0BCE0101960E947C0BCC
:100900000E94B40165960FB6F894DEBF0FBECDBF4E
:10091000DF91CF911F910F91FF90EF9008958CE29E
:100920000E94B306892B31F062E872E08EE193E019
:100930000C946D0B0E9478016DE872E08EE193E0FB
:100940000E946D0B1092B7021092B6021092B5027F
:100950001092B4020E94B40129C08AE20E94B30638
:10096000892B11F40E949E0184E30E94B306892B17
:1009700011F40E94E90282E30E94B306892B11F46C
:100980000E945D0380E30E94B306892B11F40E944C
:10099000D3038EE20E94B306892B11F40E94310426
:1009A00064EF71E080E090E00E9450058CE20E94CC
:1009B000B306892B91F2B8CF1F920F920FB60F9208
:1009C00011242F933F938F939F93AF93BF93809165
:1009D000B8029091B902A091BA02B091BB023091D5
:1009E000C002232F2D5F2D3720F40196A11DB11DCC
:1009F00005C0232F2A570296A11DB11D2093C002C6
:100A00008093B8029093B902A093BA02B093BB024C
:100A10008091BC029091BD02A091BE02B091BF0234
:100A20000196A11DB11D8093BC029093BD02A093BD
:100A3000BE02B093BF02BF91AF919F918F913F9142
:100A40002F910F900FBE0F901F9018950F931F932B
:100A50009FB7F8940091BC021091BD022091BE0294
:100A60003091BF0286B5A89B06C08F3F21F00F5F73
:100A70001F4F2F4F3F4F9FBF322F212F102F002787
:100A8000080F111D211D311D42E0000F111F221FF3
:100A9000331F4A95D1F7B801C9011F910F910895ED
:100AA000CF92DF92EF92FF92CF93DF936B017C01A5
:100AB0000E942605EB010EC00E9426056C1B7D0BD3
:100AC000683E734038F081E0C81AD108E108F108A7
:100AD000C851DC4FC114D104E104F10469F7DF917E
:100AE000CF91FF90EF90DF90CF900895789484B5E8
:100AF000826084BD84B5816084BD85B5826085BD1A
:100B000085B5816085BDEEE6F0E0808181608083FF
:100B1000E1E8F0E0108280818260808380818160E2
:100B20008083E0E8F0E0808181608083E1EBF0E0A9
:100B3000808184608083E0EBF0E08081816080834D
:100B4000E1E9F0E080818260808380818160808340
:100B5000E0E9F0E0808181608083E1EAF0E080817B
:100B600082608083808181608083E0EAF0E0808120
:100B700081608083E1E2F1E0808182608083808116
:100B800081608083E0E2F1E0808181608083EAE738
:100B9000F0E08081846080838081826080838081B6
:100BA000816080838081806880831092C100089575
:100BB000893009F443C088F4843029F138F4823054
:100BC00059F1E8F4813009F05EC023C0873061F14B
:100BD00088F5863009F057C023C08D3009F440C035
:100BE00020F48B30A9F1C0F52DC0803109F442C04A
:100BF000813109F443C08F3009F045C037C080917E
:100C000080008F7703C0809180008F7D809380006B
:100C1000089584B58F7702C084B58F7D84BD089513
:100C20008091B0008F7703C08091B0008F7D80935A
:100C3000B0000895809190008F7707C08091900058
:100C40008F7D03C080919000877F809390000895EE
:100C50008091A0008F7707C08091A0008F7D03C096
:100C60008091A000877F8093A0000895809120014B
:100C70008F7707C0809120018F7D03C08091200174
:100C8000877F809320010895CF93DF9390E0FC014C
:100C9000E65DFE4F4491FC01E059FE4F84918823AC
:100CA00041F190E0880F991FFC01E651FE4F25911C
:100CB0003491D90180539E4FFC0185919491C82FA6
:100CC000D92F9FB7F8948C91611106C04095842369
:100CD0008C938881842308C0623041F4242F2095AE
:100CE00082238C938881842B888302C0842B8C93ED
:100CF0009FBFDF91CF9108950F931F93CF93DF9301
:100D00001F92CDB7DEB7282F30E0F901EC51FF4F2D
:100D10008491F901E65DFE4F1491F901E059FE4F0F
:100D200004910023D1F0882321F069830E94D80523
:100D30006981E02FF0E0EE0FFF1FE053FE4F859139
:100D40009491DC019FB7F8948C91611103C01095C8
:100D5000812301C0812B8C939FBF0F90DF91CF9196
:100D60001F910F910895CF93DF93282F30E0F90161
:100D7000EC51FF4F8491F901E65DFE4FD491F901EA
:100D8000E059FE4FC491CC2389F081110E94D8050F
:100D9000EC2FF0E0EE0FFF1FEA54FE4F8591949187
:100DA000DC018C918D2321E030E011F420E030E073
:100DB000C901DF91CF910895FC0184859585FC01DF
:100DC000E05CFF4F20813181FC01EE5BFF4F8081B1
:100DD0009181281B390B2F733327C9010895FC011A
:100DE00084859585FC01E05CFF4F40815181FC01C9
:100DF000EE5BFF4F208131814217530741F0019094
:100E0000F081E02DE80FF91F208130E002C02FEFC4
:100E10003FEFC9010895FC0184859585FC01E05CE4
:100E2000FF4F40815181FC01EE5BFF4F20813181FA
:100E30004217530781F0A081B181A80FB91F8C918F
:100E4000208131812F5F3F4F2F73332731832083E0
:100E5000282F30E002C02FEF3FEFC9010895FC01B9
:100E600086859785FC01E05CFF4FDC01AE5BBF4FE0
:100E7000408151812D913C91119742175307C1F741
:100E80000895CF93DF93FC0186859785DC01A05CF4
:100E9000BF4F2D913C9111972F5F3F4F2F733327F9
:100EA000EC01CE5BDF4F4881598124173507D9F318
:100EB0000D90BC91A02DA80FB91F6C93A685B78586
:100EC000A05CBF4F11963C932E93A689B7892C91B5
:100ED00081E090E0058C02C0880F991F0A94E2F728
:100EE000282B2C9381E090E0DF91CF910895FB01B6
:100EF000E05CFF4F208131812F5F3F4F2F733327FD
:100F0000DB01AE5BBF4F4D915C912417350739F083
:100F1000A081B181A60FB71F8C93318320830895E0
:100F200008951F920F920FB60F9211240BB60F92D5
:100F30002F933F934F935F936F937F938F939F93E1
:100F4000AF93BF93EF93FF938091C60069E175E083
:100F50000E947707FF91EF91BF91AF919F918F9181
:100F60007F916F915F914F913F912F910F900BBEA9
:100F70000F900FBE0F901F90189508951F920F921B
:100F80000FB60F9211240BB60F922F933F934F93EE
:100F90005F936F937F938F939F93AF93BF93EF93E1
:100FA000FF938091CE0061E974E00E947707FF9182
:100FB000EF91BF91AF919F918F917F916F915F91D1
:100FC0004F913F912F910F900BBE0F900FBE0F903E
:100FD0001F90189508951F920F920FB60F9211242B
:100FE0000BB60F922F933F934F935F936F937F9323
:100FF0008F939F93AF93BF93EF93FF938091D6000E
:1010000069E074E00E947707FF91EF91BF91AF9183
:101010009F918F917F916F915F914F913F912F9110
:101020000F900BBE0F900FBE0F901F901895089554
:101030001F920F920FB60F9211240BB60F922F939F
:101040003F934F935F936F937F938F939F93AF9350
:10105000BF93EF93FF938091360161E873E00E94A4
:101060007707FF91EF91BF91AF919F918F917F9102
:101070006F915F914F913F912F910F900BBE0F9009
:101080000FBE0F901F9018958EE193E00E94DC0632
:10109000892B11F00E9490078FEF92E00E94DC06EE
:1010A000892B11F00E94BD0780EE92E00E94DC06C1
:1010B000892B11F00E94EA0781EC92E00E94DC0685
:1010C000892B11F00C94170808951F920F920FB6F8
:1010D0000F9211240BB60F922F933F938F939F93F0
:1010E000EF93FF9320911505309116058091170518
:1010F000909118052817390731F48091C1008F7D30
:101100008093C10014C0E0911705F0911805EB52CF
:10111000FB4F2081809117059091180501968F73E0
:10112000992790931805809317052093C600FF9187
:10113000EF919F918F913F912F910F900BBE0F9048
:101140000FBE0F901F9018951F920F920FB60F921F
:1011500011240BB60F922F933F938F939F93EF938E
:10116000FF9320918D0430918E0480918F04909193
:1011700090042817390731F48091C9008F7D80933E
:10118000C90014C0E0918F04F0919004E35BFB4F21
:10119000208180918F049091900401968F739927FC
:1011A0009093900480938F042093CE00FF91EF9151
:1011B0009F918F913F912F910F900BBE0F900FBE7B
:1011C0000F901F9018951F920F920FB60F92112437
:1011D0000BB60F922F933F938F939F93EF93FF93B1
:1011E0002091050430910604809107049091080431
:1011F0002817390731F48091D1008F7D8093D10079
:1012000014C0E0910704F0910804EB53FC4F2081D7
:10121000809107049091080401968F739927909309
:101220000804809307042093D600FF91EF919F91CB
:101230008F913F912F910F900BBE0F900FBE0F908B
:101240001F9018951F920F920FB60F9211240BB694
:101250000F922F933F938F939F93EF93FF93209140
:101260007D0330917E0380917F0390918003281746
:10127000390731F4809131018F7D8093310114C0A1
:10128000E0917F03F0918003E35CFC4F208180912B
:101290007F039091800301968F7399279093800329
:1012A00080937F0320933601FF91EF919F918F915F
:1012B0003F912F910F900BBE0F900FBE0F901F907C
:1012C0001895CF92DF92EF92FF92CF93DF93EC01CC
:1012D0006A017B01411581EE580761057105F9F03E
:1012E000EC89FD8981E090E00E8C02C0880F991F87
:1012F0000A94E2F7808360E079E08DE390E0A70153
:1013000096010E94C10C215031094109510956959D
:10131000479537952795211580E1380798F0EC8996
:10132000FD89108260E874E88EE190E0A7019601E3
:101330000E94C10C21503109410951095695479528
:1013400037952795E889F9893083EA89FB892083D5
:10135000EE89FF89408181E090E09C010A8C02C007
:10136000220F331F0A94E2F7422B4083EE89FF8954
:1013700040819C010B8C02C0220F331F0A94E2F7BC
:10138000422B4083EE89FF8940819C010C8C02C076
:10139000220F331F0A94E2F7422B4083EE89FF8924
:1013A00020810D8C02C0880F991F0A94E2F7809566
:1013B00082238083DF91CF91FF90EF90DF90CF90D9
:1013C0000895CF93109221031092200388EE93E0AA
:1013D000A0E0B0E08093220390932303A093240322
:1013E000B093250328EA32E030931F0320931E03B5
:1013F00049E155E050932B0340932A0345ED54E017
:1014000050932D0340932C0345EC50E050932F0351
:1014100040932E0344EC50E050933103409330034B
:1014200040EC50E0509333034093320341EC50E0E2
:10143000509335034093340346EC50E05093370308
:1014400040933603C4E0C0933803F3E0F0933903CC
:10145000E7E0E0933A0375E070933B0361E060934B
:101460003C031092020310920103809303039093B4
:101470000403A0930503B093060330930003209365
:10148000FF0241E954E050930C0340930B034DE4F9
:1014900054E050930E0340930D034DEC50E05093F5
:1014A000100340930F034CEC50E050931203409311
:1014B000110348EC50E0509314034093130349EC9C
:1014C00050E050931603409315034EEC50E05093B8
:1014D000180340931703C0931903F0931A03E09382
:1014E0001B0370931C0360931D031092E302109280
:1014F000E2028093E4029093E502A093E602B093A7
:10150000E7023093E1022093E00249E054E0509377
:10151000ED024093EC0245EC53E05093EF02409310
:10152000EE0245ED50E05093F1024093F00244ED9D
:1015300050E05093F3024093F20240ED50E050939C
:10154000F5024093F40241ED50E05093F7024093CE
:10155000F60246ED50E05093F9024093F802C09332
:10156000FA02F093FB02E093FC027093FD02609399
:10157000FE021092C4021092C3028093C50290939F
:10158000C602A093C702B093C8023093C202209350
:10159000C10281E893E09093CE028093CD028DE367
:1015A00093E09093D0028093CF0285E391E09093F3
:1015B000D2028093D10284E391E09093D40280938D
:1015C000D30280E391E09093D6028093D50281E329
:1015D00091E09093D8028093D70286E391E09093B4
:1015E000DA028093D902C093DB02F093DC02E0932D
:1015F000DD027093DE026093DF02CF910895CF92F7
:10160000DF92EF92FF920F931F93CF93DF936C01C2
:10161000EB017A01E60EF71E00E010E00BC06991C5
:10162000D601ED91FC910190F081E02DC601199554
:10163000080F191FCE15DF0591F7C801DF91CF9173
:101640001F910F91FF90EF90DF90CF900895DB01F5
:101650000D900020E9F7AD0141505109461B570B91
:10166000DC01ED91FC910280F381E02D1994AF92A1
:10167000BF92CF92DF92EF92FF920F931F93CF937F
:10168000DF937C016B0100E010E0C0E0D0E011C00E
:10169000D701ED91FC91A080B180B801C6010E94F4
:1016A000B00C682FC701F5011995C80FD91F0F5F3E
:1016B0001F4FD60114968D919C9115970817190705
:1016C00038F3CE01DF91CF911F910F91FF90EF90F2
:1016D000DF90CF90BF90AF9008950C94270B0E949D
:1016E00076050E943801C4E4D8E00E948F04209758
:1016F000E1F30E944408F9CFFC01808191810C94B0
:10170000820DCF93DF93EC0188819981009711F0CE
:101710000E94820D198218821D821C821B821A82ED
:10172000DF91CF9108950F931F93CF93DF93EC0137
:101730008B016F5F7F4F888199810E94200E0097F7
:1017400031F0998388831B830A8381E001C080E0A4
:10175000DF91CF911F910F910895CF93DF93EC010B
:1017600088819981892B31F08A819B81861797071F
:1017700008F00CC0CE010E94930B882349F08C81A5
:101780009D81892B19F4E881F981108281E001C0E3
:1017900080E0DF91CF910895EF92FF920F931F9316
:1017A000CF93DF93EC017B018A01BA010E94AD0B5C
:1017B000811104C0CE010E94810B07C01D830C83E0
:1017C000B701888199810E94090FCE01DF91CF91E5
:1017D0001F910F91FF90EF900895DC0111961C92DC
:1017E0001E9213961C921E92129715961C921E9290
:1017F000149716961C926115710559F0DB010D9036
:101800000020E9F7AD0141505109461B570B0C94DC
:10181000CC0B0895CF93DF93EC01FB01861797075C
:1018200061F0608171816115710529F044815581F4
:101830000E94CC0B02C00E94810BCE01DF91CF91A0
:101840000895FC0111821082138212821582148283
:1018500016820C940A0CEF92FF920F931F93CF9372
:10186000DF93EC017B010C811D816115710511F481
:1018700080E016C04115510591F0040F151FB80105
:101880000E94AD0B8823A1F3288139818C819D8131
:10189000B701820F931F0E94090F1D830C8381E003
:1018A000DF91CF911F910F91FF90EF900895EF92EC
:1018B000FF920F931F93CF93DF93CDB7DEB7279798
:1018C0000FB6F894DEBF0FBECDBF7C01CB014AE05E
:1018D00050E08E010F5F1F4FB8010E94100FF801FA
:1018E00001900020E9F7AF0141505109401B510B15
:1018F000B801C7010E942B0C27960FB6F894DEBFE3
:101900000FBECDBFDF91CF911F910F91FF90EF9050
:101910000895CF93DF93D82FC92FFB0144815581C0
:10192000608171810E942B0C811104C08D2F9C2F2E
:101930000E94810B8D2F9C2FDF91CF910895CF9323
:10194000DF93D82FC92F0E94570C811104C08D2F0F
:101950009C2F0E94810B8D2F9C2FDF91CF9108959A
:10196000FC01248135816217730748F480819181DD
:10197000009729F0FC01E60FF71F8081089580E0B1
:101980000895A1E21A2EAA1BBB1BFD010DC0AA1FC0
:10199000BB1FEE1FFF1FA217B307E407F50720F0D8
:1019A000A21BB30BE40BF50B661F771F881F991F53
:1019B0001A9469F760957095809590959B01AC019C
:1019C000BD01CF0108950790F691E02D19940F9372
:1019D0001F93CF93DF938230910510F482E090E063
:1019E000E0915F05F091600520E030E0C0E0D0E0DC
:1019F00023C04081518148175907A8F0481759075B
:101A000061F482819381209719F09B838A832EC091
:101A10009093600580935F0529C02115310529F059
:101A20004217530710F0A90102C0BE01DF01028175
:101A30001381EF019A01F8013097D9F6211531058C
:101A400009F1281B390B2430310590F412968D9141
:101A50009C9113976115710521F0FB01938382839B
:101A600004C09093600580935F05FD01329644C0E9
:101A7000FD01E20FF31F81939193225031092D93C1
:101A80003C933AC020915D0530915E05232B41F4D3
:101A9000209102023091030230935E0520935D0590
:101AA00020910002309101022115310541F42DB73A
:101AB0003EB74091040250910502241B350BE09182
:101AC0005D05F0915E05E217F307A0F42E1B3F0BB6
:101AD0002817390778F0AC014E5F5F4F24173507A0
:101AE00048F04E0F5F1F50935E0540935D05819354
:101AF000919302C0E0E0F0E0CF01DF91CF911F9120
:101B00000F910895EF92FF920F931F93CF93DF935E
:101B1000009709F48EC0DC01129713961C921E9256
:101B20001297E0905F05F0906005E114F10489F4EC
:101B30002D913C911197280F391F80915D0590914F
:101B40005E058217930789F5B0935E05A0935D0546
:101B500070C0E70120E030E001C0EA01CA17DB07EE
:101B600038F44A815B819E0141155105B1F722C0CD
:101B7000AC0142505109FA01D383C2830081118123
:101B8000BC01600F711F6C177D0761F4688179815A
:101B9000600F711F6E5F7F4F718360836A817B81ED
:101BA000738362832115310529F4B0936005A093F6
:101BB0005F053FC0F901B383A283E90149915991BF
:101BC000C40FD51FAC17BD0771F4DC019E918E9137
:101BD000840F951F02969183808312968D919C911C
:101BE000139793838283A0E0B0E002C0D7017C0109
:101BF000F701828193810097C9F7C701029620817E
:101C00003181820F931F20915D0530915E05281769
:101C1000390779F4109729F41092600510925F0546
:101C200004C013961C921E921297F0925E05E092E9
:101C30005D05DF91CF911F910F91FF90EF90089577
:101C40008F929F92AF92BF92CF92DF92EF92FF92CC
:101C50000F931F93CF93DF93EC01009779F4CB019F
:101C6000DF91CF911F910F91FF90EF90DF90CF9078
:101C7000BF90AF909F908F900C94E70CDC01A60F63
:101C8000B71FFC013297AE17BF0718F4C0E0D0E0D1
:101C9000A9C00081118106171707B0F005301105A2
:101CA00008F4A0C0C80104978617970708F49AC0E3
:101CB00002501109061B170B0D931D93718360834E
:101CC000CD010E94820D8EC06B01C01AD10A7C0129
:101CD000E00EF11EE0915F05F091600520E030E03C
:101CE00080E090E048C0EE15FF05D1F5808091803E
:101CF000540142E0A40EB11CAC14BD0488F174017F
:101D0000EC18FD08670122E0C20ED11C9E01225092
:101D1000310945E0C416D10478F04281538113960D
:101D20005C934E9312971196FC92EE92F901718397
:101D300060833A2F2B2F09C00E5F1F4F080D191D0E
:101D4000D9010D931C9332812381009721F0FC016E
:101D50003283238347C030935F052093600542C0E0
:101D6000808191812817390708F49C0152814381B1
:101D7000CF01E52FF42F309709F0B5CF80915D05A5
:101D800090915E058E159F05F1F426173707D8F45C
:101D90008091000290910102009741F48DB79EB7A7
:101DA0002091040230910502821B930BA817B907FA
:101DB00008F06CCFB0935E05A0935D05FE013297ED
:101DC000718360830FC0CB010E94E70C7C010097F8
:101DD00009F45CCFA801BE010E94000FCE010E9451
:101DE000820DE701CE01DF91CF911F910F91FF90FE
:101DF000EF90DF90CF90BF90AF909F908F9008951D
:101E0000FB01DC0102C001900D9241505040D8F717
:101E10000895FB01DC0101900D920020E1F7089587
:101E2000FB019F01E8944230C4F04532B4F44A30DB
:101E300029F497FB1EF4909581959F4F642F772787
:101E40000E94410F805D8A330CF0895D8193CB0144
:101E50000097A1F716F45DE251931082C9010C942A
:101E6000310FDC01FC01672F71917723E1F7329785
:101E700004C07C916D9370836291AE17BF07C8F365
:101E80000895AA1BBB1B51E107C0AA1FBB1FA617C1
:101E9000B70710F0A61BB70B881F991F5A95A9F713
:0E1EA00080959095BC01CD010895F894FFCF78
:101EAE000000610520004D6F746F7273206F6666BF
:101EBE0000456D657267656E63792073746F70206F
:101ECE00627574746F6E20707265737365640A0048
:101EDE000A5365742052696768743A000A53657430
:101EEE00204C6566743A000A4A6F79737469636BA5
:101EFE00207570000A4A6F79737469636B20646F82
:101F0E00776E000A4A6F79737469636B206C65662D
:101F1E0074000A4A6F79737469636B20726967681B
:101F2E0074004175746F204D6F64650A00726166AE
:101F3E00744265727279206D616E75616C206D6F81
:101F4E0064650A00000000004107FF0ADC060B076B
:041F5E00EF062F0754
:00000001FF
