:100000000C9403010C9434010C9434010C943401CD
:100010000C9434010C9434010C9434010C9434018C
:100020000C9434010C9434010C9434010C9434017C
:100030000C9434010C9434010C9434010C9434016C
:100040000C9434010C9434010C9434010C9434015C
:100050000C9434010C9434010C9434010C94680415
:100060000C9434010C941D070C94F1070C9434018A
:100070000C9434010C9434010C9434010C9434012C
:100080000C9434010C9434010C9434010C9434011C
:100090000C944A070C9430080C9434010C943401ED
:1000A0000C9434010C9434010C9434010C943401FC
:1000B0000C9434010C9434010C9434010C943401EC
:1000C0000C9434010C9434010C9434010C94770793
:1000D0000C946F080C9434010C94A4070C94AE0893
:1000E0000C9434010000090A02080B0C0D070603EA
:1000F00004010000000000000000000000000000FB
:1001000000000000000000000000000000000000EF
:1001100011100F00000000000000000000000000AF
:100120000000000000000000000001021020200874
:100130000810204010204080020102010804020142
:1001400001020408102040808040201008040201B1
:10015000800402018040201008040201080402010A
:100160000102040810204080010204081020408091
:1001700005050505070508080808020202020A0A23
:100180000808040404040101010101010101030341
:10019000030303030303040707070C0C0C0C0C0CEC
:1001A0000C0C0202020206060606060606060B0BE9
:1001B0000B0B0B0B0B0B000020002300260029006B
:1001C0002C002F003200000100000301060109018C
:1001D00000002200250028002B002E0031003400F2
:1001E00002010000050108010B01000021002400AC
:1001F00027002A002D003000330001010000040117
:1002000007010A016D0911241FBECFEFD1E2DEBF45
:10021000CDBF00E00CBF12E0A0E0B2E0E4EFF5E1FA
:1002200000E00BBF02C007900D92AC31B107D9F7C7
:1002300014E0ACE1B2E001C01D92A83CB107E1F7C7
:1002400012E0C6E0D2E000E006C022970109FE01FC
:100250000BBF0E94F40AC430D10780E00807A9F759
:100260000E94C50A0C94F80A0C94000040E052EC7D
:1002700061E070E089E892E00E94ED0862E08CE2C3
:100280000E94D00562E086E20E94D00562E084E22E
:100290000E94D00561E088E20E94D00561E088E01C
:1002A0000E94D00561E089E00E94D00561E08AE00B
:1002B0000E94D00561E087E00E94D00561E086E001
:1002C0000E94D00561E08CE00E94D00561E08DE0E5
:1002D0000E94D00561E08BE00E94D00562E084E3DB
:1002E0000E94D00562E082E30E94D00562E080E3D4
:1002F0000E94D00562E08EE20E94D00562E08AE2B0
:100300000E94D00561E088E20C94080661E08BE071
:100310000E94080661E08DE00E94080661E08CE022
:100320000E94080661E086E00E94080661E087E01E
:100330000E94080661E08AE00E94080661E089E008
:100340000E94080661E088E00E94080660E072E012
:1003500089E892E00C94C30A1092220210922102C2
:100360001092200210921F020E94860180E090E00D
:100370000E94F80A80911F0290912002833091051B
:1003800011F460E004C08230910571F461E08BE00B
:100390000E94080660E08DE00E94080660E08CE0A4
:1003A0000E94080661E034C08130910531F461E0BB
:1003B0008BE00E94080661E0EECF009751F461E007
:1003C0008BE00E94080661E08DE00E94080661E073
:1003D000E6CF8F3F2FEF920731F461E08BE00E9470
:1003E000080661E00DC08E3F2FEF920711F461E027
:1003F00003C0039681F460E08BE00E94080660E091
:100400008DE00E94080660E08CE00E94080660E033
:1004100086E00E940806809121029091220283309A
:10042000910511F460E004C08230910571F461E03F
:1004300087E00E94080660E08AE00E94080660E00B
:1004400089E00E94080661E034C08130910531F4F2
:1004500061E087E00E94080661E0EECF009751F46A
:1004600061E087E00E94080661E08AE00E940806D9
:1004700061E01BC08F3F2FEF920731F461E087E00E
:100480000E94080661E00DC08E3F2FEF920711F425
:1004900061E003C0039681F460E087E00E940806F3
:1004A00060E08AE00E94080660E089E00E94080699
:1004B00060E088E00C9408060895809121029091F4
:1004C00022028330910534F40196909322028093A6
:1004D0002102089580911F02909120028E3F2FEFFC
:1004E00092072CF001979093200280931F020895A9
:1004F00080911F02909120028330910534F401967F
:100500009093200280931F02089580912102909180
:1005100022028E3F2FEF92072CF001979093220238
:1005200080932102089580912102909122028330CC
:1005300091052CF4019690932202809321028091E0
:100540001F0290912002833091052CF40196909324
:10055000200280931F020C94BA0180912102909195
:1005600022028E3F2FEF92072CF0019790932202E8
:100570008093210280911F02909120028E3F2FEFE5
:1005800092072CF001979093200280931F020C9405
:10059000BA010E9478020C94BA010E945D020C9488
:1005A000BA0189E892E00E946806181619060CF054
:1005B000CDC089E892E00E94970680931E028CE2EB
:1005C0000E943F06019709F0B0C080911E0281345D
:1005D00041F483E090E090932202809321020E94F4
:1005E000BA0180911E02813441F483E090E090933F
:1005F0002202809321020E94BA0180911E0282345D
:1006000041F482E090E090932202809321020E94C4
:10061000BA0180911E02833441F481E090E090930E
:100620002202809321020E94BA0180911E0284342A
:1006300031F410922202109221020E94BA0180919C
:100640001E02853441F48FEF9FEF90932202809336
:1006500021020E94BA0180911E02863441F48EEF7D
:100660009FEF90932202809321020E94BA01809111
:100670001E02873441F48DEF9FEF90932202809306
:1006800021020E94BA0180911E02883441F483E065
:1006900090E09093200280931F020E94BA01809103
:1006A0001E02893441F482E090E09093200280930E
:1006B0001F020E94BA0180911E028A3441F481E037
:1006C00090E09093200280931F020E94BA018091D3
:1006D0001E028B3431F41092200210921F020E94ED
:1006E000BA0180911E028C3441F48FEF9FEF9093FA
:1006F000200280931F020E94BA0180911E028D3455
:1007000041F48EEF9FEF9093200280931F020E948E
:10071000BA0180911E028E3441F48DEF9FEF9093C9
:10072000200280931F020E94BA0180911E0281352F
:1007300051F486E20E943F06892B29F484E20E944C
:100740003F06892B51F180E280931E0280911D02A9
:10075000811105C086E20E943F06892B69F18091D4
:100760001D02882329F086E20E943F06019799F135
:1007700080911C02811105C084E20E943F06892BF2
:10078000C1F180911C02882309F44FC084E20E94C9
:100790003F06019709F049C03BC060E088E20E9433
:1007A000080668EE73E080E090E00E94DC0461E0FF
:1007B00088E20E940806C7CF81E080931D0260E5B1
:1007C00089E892E00E94CD0664E670E080E090E067
:1007D0000E94DC04C4CF10921D0261E589E892E01A
:1007E0000E94CD0664E670E080E090E00E94DC04A8
:1007F000BFCF81E080931C0262E589E892E00E940D
:10080000CD0664E670E080E090E00E94DC04B9CFA1
:1008100010921C0263E589E892E00E94CD0664E62E
:1008200070E080E090E00C94DC0408958CE20E947B
:100830003F06892B39F08CE20E943F06019709F0B0
:1008400046C040C00E9486011092220210922102EE
:100850001092200210921F020E94BA012BC08AE25D
:100860000E943F06892B11F40E94AC0184E30E9490
:100870003F06892B11F40E94930282E30E943F06F7
:10088000892B11F40E94AD0280E30E943F06892B60
:1008900011F40E94C9028EE20E943F06892B11F4D6
:1008A0000E94CD020E94D10264EF71E080E090E0EE
:1008B0000E94DC048CE20E943F06892B81F2BBCFB0
:1008C0000E94D1028CE20E943F060197C9F308956D
:1008D0001F920F920FB60F9211242F933F938F9375
:1008E0009F93AF93BF938091230290912402A09194
:1008F0002502B091260230912B02232F2D5F2D3738
:1009000020F40196A11DB11D05C0232F2A57029680
:10091000A11DB11D20932B028093230290932402EA
:10092000A0932502B093260280912702909128027D
:10093000A0912902B0912A020196A11DB11D8093B8
:10094000270290932802A0932902B0932A02BF9114
:10095000AF919F918F913F912F910F900FBE0F906C
:100960001F9018950F931F939FB7F894009127023B
:10097000109128022091290230912A0286B5A89B65
:1009800006C08F3F21F00F5F1F4F2F4F3F4F9FBF7C
:10099000322F212F102F0027080F111D211D311D6F
:1009A00042E0000F111F221F331F4A95D1F7B801F3
:1009B000C9011F910F910895CF92DF92EF92FF929C
:1009C000CF93DF936B017C010E94B204EB010EC058
:1009D0000E94B2046C1B7D0B683E734038F081E0CE
:1009E000C81AD108E108F108C851DC4FC114D1047C
:1009F000E104F10469F7DF91CF91FF90EF90DF9070
:100A0000CF900895789484B5826084BD84B5816068
:100A100084BD85B5826085BD85B5816085BDEEE606
:100A2000F0E0808181608083E1E8F0E010828081E5
:100A300082608083808181608083E0E8F0E0808153
:100A400081608083E1EBF0E0808184608083E0EB73
:100A5000F0E0808181608083E1E9F0E08081826064
:100A60008083808181608083E0E9F0E08081816023
:100A70008083E1EAF0E08081826080838081816010
:100A80008083E0EAF0E0808181608083E1E2F1E050
:100A9000808182608083808181608083E0E2F1E0F8
:100AA000808181608083EAE7F0E0808184608083D8
:100AB0008081826080838081816080838081806882
:100AC00080831092C1000895893009F443C088F4EE
:100AD000843029F138F4823059F1E8F4813009F09A
:100AE0005EC023C0873061F188F5863009F057C0B9
:100AF00023C08D3009F440C020F48B30A9F1C0F53B
:100B00002DC0803109F442C0813109F443C08F30D7
:100B100009F045C037C0809180008F7703C0809175
:100B200080008F7D80938000089584B58F7702C008
:100B300084B58F7D84BD08958091B0008F7703C008
:100B40008091B0008F7D8093B000089580919000D7
:100B50008F7707C0809190008F7D03C080919000B7
:100B6000877F8093900008958091A0008F7707C0C1
:100B70008091A0008F7D03C08091A000877F80932B
:100B8000A0000895809120018F7707C080912001F7
:100B90008F7D03C080912001877F8093200108957D
:100BA000CF93DF9390E0FC01E65DFE4F4491FC01A2
:100BB000E059FE4F8491882341F190E0880F991FFE
:100BC000FC01E651FE4F25913491D90180539E4F8F
:100BD000FC0185919491C82FD92F9FB7F8948C91DF
:100BE000611106C0409584238C938881842308C0BA
:100BF000623041F4242F209582238C938881842BAA
:100C0000888302C0842B8C939FBFDF91CF9108957E
:100C10000F931F93CF93DF931F92CDB7DEB7282F8B
:100C200030E0F901EC51FF4F8491F901E65DFE4F90
:100C30001491F901E059FE4F04910023D1F088236B
:100C400021F069830E9464056981E02FF0E0EE0FD6
:100C5000FF1FE053FE4F85919491DC019FB7F894FC
:100C60008C91611103C01095812301C0812B8C935D
:100C70009FBF0F90DF91CF911F910F910895CF9358
:100C8000DF93282F30E0F901EC51FF4F8491F901F7
:100C9000E65DFE4FD491F901E059FE4FC491CC239B
:100CA00089F081110E946405EC2FF0E0EE0FFF1F28
:100CB000EA54FE4F85919491DC018C918D2321E0C3
:100CC00030E011F420E030E0C901DF91CF910895C8
:100CD000FC0184859585FC01E05CFF4F208131811A
:100CE000FC01EE5BFF4F80819181281B390B2F7334
:100CF0003327C9010895FC0184859585FC01E05CDA
:100D0000FF4F40815181FC01EE5BFF4F208131811B
:100D10004217530741F00190F081E02DE80FF91FD1
:100D2000208130E002C02FEF3FEFC9010895FC01A0
:100D300084859585FC01E05CFF4F40815181FC0179
:100D4000EE5BFF4F208131814217530781F0A08174
:100D5000B181A80FB91F8C91208131812F5F3F4F46
:100D60002F73332731832083282F30E002C02FEFE9
:100D70003FEFC9010895FC0186859785FC01E05C81
:100D8000FF4FDC01AE5BBF4F408151812D913C9103
:100D9000119742175307C1F70895CF93DF93FC01D2
:100DA00086859785DC01A05CBF4F2D913C91119702
:100DB0002F5F3F4F2F733327EC01CE5BDF4F48810E
:100DC000598124173507D9F30D90BC91A02DA80F98
:100DD000B91F6C93A685B785A05CBF4F11963C9355
:100DE0002E93A689B7892C9181E090E0058C02C0F2
:100DF000880F991F0A94E2F7282B2C9381E090E04A
:100E0000DF91CF910895FB01E05CFF4F208131819C
:100E10002F5F3F4F2F733327DB01AE5BBF4F4D91E9
:100E20005C912417350739F0A081B181A60FB71F57
:100E30008C9331832083089508951F920F920FB6EB
:100E40000F9211240BB60F922F933F934F935F9302
:100E50006F937F938F939F93AF93BF93EF93FF9382
:100E60008091C60064E874E00E940307FF91EF914F
:100E7000BF91AF919F918F917F916F915F914F91B2
:100E80003F912F910F900BBE0F900FBE0F901F90B0
:100E9000189508951F920F920FB60F9211240BB65A
:100EA0000F922F933F934F935F936F937F938F9303
:100EB0009F93AF93BF93EF93FF938091CE006CEF1E
:100EC00073E00E940307FF91EF91BF91AF919F9153
:100ED0008F917F916F915F914F913F912F910F90E3
:100EE0000BBE0F900FBE0F901F90189508951F9284
:100EF0000F920FB60F9211240BB60F922F933F93C0
:100F00004F935F936F937F938F939F93AF93BF9311
:100F1000EF93FF938091D60064E773E00E9403078C
:100F2000FF91EF91BF91AF919F918F917F916F91C1
:100F30005F914F913F912F910F900BBE0F900FBE7D
:100F40000F901F90189508951F920F920FB60F9251
:100F500011240BB60F922F933F934F935F936F9390
:100F60007F938F939F93AF93BF93EF93FF93809162
:100F700036016CEE72E00E940307FF91EF91BF9182
:100F8000AF919F918F917F916F915F914F913F9121
:100F90002F910F900BBE0F900FBE0F901F901895C2
:100FA00089E892E00E946806892B11F00E941C07D4
:100FB0008AE692E00E946806892B11F00E94490798
:100FC0008BE492E00E946806892B11F00E9476075C
:100FD0008CE292E00E946806892B11F00C94A30722
:100FE00008951F920F920FB60F9211240BB60F9215
:100FF0002F933F938F939F93EF93FF9320918004C0
:1010000030918104809182049091830428173907DC
:1010100031F48091C1008F7D8093C10014C0E091B4
:101020008204F0918304E05CFB4F20818091820474
:101030009091830401968F739927909383048093F2
:1010400082042093C600FF91EF919F918F913F9171
:101050002F910F900BBE0F900FBE0F901F90189501
:101060001F920F920FB60F9211240BB60F922F936F
:101070003F938F939F93EF93FF932091F8033091C9
:10108000F9038091FA039091FB032817390731F493
:101090008091C9008F7D8093C90014C0E091FA034C
:1010A000F091FB03E854FC4F20818091FA0390916A
:1010B000FB0301968F7399279093FB038093FA03A8
:1010C0002093CE00FF91EF919F918F913F912F91AF
:1010D0000F900BBE0F900FBE0F901F9018951F9290
:1010E0000F920FB60F9211240BB60F922F933F93CE
:1010F0008F939F93EF93FF9320917003309171032F
:1011000080917203909173032817390731F480910D
:10111000D1008F7D8093D10014C0E0917203F091D3
:101120007303E05DFC4F2081809172039091730303
:1011300001968F7399279093730380937203209382
:10114000D600FF91EF919F918F913F912F910F903A
:101150000BBE0F900FBE0F901F9018951F920F920D
:101160000FB60F9211240BB60F922F933F938F93CC
:101170009F93EF93FF932091E8023091E9028091D1
:10118000EA029091EB022817390731F4809131017E
:101190008F7D8093310114C0E091EA02F091EB025F
:1011A000E855FD4F20818091EA029091EB02019673
:1011B0008F7399279093EB028093EA022093360174
:1011C000FF91EF919F918F913F912F910F900BBEC7
:1011D0000F900FBE0F901F901895CF92DF92EF9255
:1011E000FF92CF93DF93EC016A017B01411581EE01
:1011F000580761057105F9F0EC89FD8981E090E0FF
:101200000E8C02C0880F991F0A94E2F7808360E079
:1012100079E08DE390E0A70196010E94D20A215067
:10122000310941095109569547953795279521155B
:1012300080E1380798F0EC89FD89108260E874E855
:101240008EE190E0A70196010E94D20A2150310957
:10125000410951095695479537952795E889F989A8
:101260003083EA89FB892083EE89FF89408181E010
:1012700090E09C010A8C02C0220F331F0A94E2F70F
:10128000422B4083EE89FF8940819C010B8C02C078
:10129000220F331F0A94E2F7422B4083EE89FF8925
:1012A00040819C010C8C02C0220F331F0A94E2F78C
:1012B000422B4083EE89FF8920810D8C02C0880F6C
:1012C000991F0A94E2F7809582238083DF91CF9162
:1012D000FF90EF90DF90CF900895CF9310928C0203
:1012E00010928B0288EE93E0A0E0B0E080938D0234
:1012F00090938E02A0938F02B09390022FE032E081
:1013000030938A022093890244E854E05093960275
:101310004093950240E454E0509398024093970222
:1013200045EC50E050939A024093990244EC50E00F
:1013300050939C0240939B0240EC50E050939E02DD
:1013400040939D0241EC50E05093A00240939F02D5
:1013500046EC50E05093A2024093A102C4E0C09337
:10136000A302F3E0F093A402E7E0E093A50275E0A6
:101370007093A60261E06093A70210926D02109232
:101380006C0280936E0290936F02A0937002B093F0
:10139000710230936B0220936A024CEF53E050933A
:1013A00077024093760248EB53E0509379024093E2
:1013B00078024DEC50E050937B0240937A024CEC63
:1013C00050E050937D0240937C0248EC50E05093F3
:1013D0007F0240937E0249EC50E05093810240939B
:1013E00080024EEC50E05093830240938202C093FF
:1013F0008402F0938502E0938602709387026093E3
:10140000880210924E0210924D0280934F029093E8
:101410005002A0935102B093520230934C02209399
:101420004B0244E753E0509358024093570240E385
:1014300053E050935A024093590245ED50E05093C7
:101440005C0240935B0244ED50E050935E02409397
:101450005D0240ED50E05093600240935F0241ED29
:1014600050E0509362024093610246ED50E0509389
:10147000640240936302C0936502F0936602E093B6
:101480006702709368026093690210922F021092B3
:101490002E028093300290933102A0933202B093D7
:1014A000330230932D0220932C028CEE92E0909325
:1014B00039028093380288EA92E090933B0280934D
:1014C0003A0285E391E090933D0280933C0284E3ED
:1014D00091E090933F0280933E0280E391E09093ED
:1014E00041028093400281E391E090934302809314
:1014F000420286E391E09093450280934402C093B8
:101500004602F0934702E0934802709349026093C9
:101510004A02CF910895CF92DF92EF92FF920F93FC
:101520001F93CF93DF936C01EB017A01E60EF71E58
:1015300000E010E00BC06991D601ED91FC910190A3
:10154000F081E02DC6011995080F191FCE15DF0592
:1015500091F7C801DF91CF911F910F91FF90EF900C
:10156000DF90CF900895DB010D900020E9F7AD01E9
:1015700041505109461B570BDC01ED91FC91028053
:10158000F381E02D19940C94B30A0E9402050E9485
:101590003601C0EDD7E00E9416042097E1F30E94C7
:1015A000D007F9CFA1E21A2EAA1BBB1BFD010DC06B
:1015B000AA1FBB1FEE1FFF1FA217B307E407F50703
:1015C00020F0A21BB30BE40BF50B661F771F881FDF
:1015D000991F1A9469F760957095809590959B0175
:1015E000AC01BD01CF0108950790F691E02D19944B
:0415F000F894FFCF9D
:1015F4004D6F746F7273206F66660000000000CD3B
:0C160400068B0A680697067B06BB0600F2
:00000001FF
