:100000000C9473000C94A4000C94A4000C94A40011
:100010000C94A4000C94A4000C94A4000C94A400D0
:100020000C94A4000C94A4000C94A4000C94A400C0
:100030000C94A4000C94A4000C94A4000C94A400B0
:100040000C94A4000C94A4000C94A4000C94A400A0
:100050000C94A4000C94A4000C94A4000C94DA005A
:100060000C94A4000C948B020C945F030C94A400D9
:100070000C94A4000C94A4000C94A4000C94A40070
:100080000C94A4000C94A4000C94A4000C94A40060
:100090000C94B8020C949E030C94A4000C94A4003D
:1000A0000C94A4000C94A4000C94A4000C94A40040
:1000B0000C94A4000C94A4000C94A4000C94A40030
:1000C0000C94A4000C94A4000C94A4000C94E502DD
:1000D0000C94DD030C94A4000C9412030C941C04E7
:1000E0000C94A400DB0411241FBECFEFD1E2DEBFCD
:1000F000CDBF00E00CBF12E0A0E0B2E0E8E3FEE01C
:1001000000E00BBF02C007900D92A031B107D9F7F4
:1001100014E0A0E1B2E001C01D92A53BB107E1F7F8
:1001200010E0C6EED0E000E006C022970109FE0113
:100130000BBF0E941607C43ED10780E00807A9F74D
:100140000E94E7060C941A070C94000040E052EC61
:1001500061E070E086E792E00E945B0460ED77E08A
:1001600080E090E009C061E086E792E00E943B02F7
:1001700068EB7BE080E090E00E944E0186E792E031
:100180000E94D601892B79F386E792E00C94050250
:1001900060E070E0EB0121964AE050E086E792E0F3
:1001A0000E94DF066AE070E080E090E00E944E016D
:1001B000BE01F0CF1F920F920FB60F9211242F9312
:1001C0003F938F939F93AF93BF9380911002909131
:1001D0001102A0911202B091130230911802232F44
:1001E0002D5F2D3720F40196A11DB11D05C0232FD1
:1001F0002A570296A11DB11D209318028093100268
:1002000090931102A0931202B093130280911402F2
:1002100090911502A0911602B09117020196A11DAE
:10022000B11D8093140290931502A0931602B0930F
:100230001702BF91AF919F918F913F912F910F9096
:100240000FBE0F901F9018950F931F939FB7F894B0
:10025000009114021091150220911602309117029C
:1002600086B5A89B06C08F3F21F00F5F1F4F2F4F11
:100270003F4F9FBF322F212F102F0027080F111D36
:10028000211D311D42E0000F111F221F331F4A950F
:10029000D1F7B801C9011F910F910895CF92DF9254
:1002A000EF92FF92CF93DF936B017C010E942401B8
:1002B000EB010EC00E9424016C1B7D0B683E734055
:1002C00038F081E0C81AD108E108F108C851DC4FC4
:1002D000C114D104E104F10469F7DF91CF91FF90DB
:1002E000EF90DF90CF900895789484B5826084BDBC
:1002F00084B5816084BD85B5826085BD85B581602A
:1003000085BDEEE6F0E0808181608083E1E8F0E089
:100310001082808182608083808181608083E0E8B8
:10032000F0E0808181608083E1EBF0E08081846097
:100330008083E0EBF0E0808181608083E1E9F0E0A0
:10034000808182608083808181608083E0E9F0E049
:10035000808181608083E1EAF0E080818260808337
:10036000808181608083E0EAF0E080818160808329
:10037000E1E2F1E08081826080838081816080831E
:10038000E0E2F1E0808181608083EAE7F0E0808153
:1003900084608083808182608083808181608083AB
:1003A0008081806880831092C1000895FC0184855B
:1003B0009585FC01E05CFF4F20813181FC01EE5B03
:1003C000FF4F80819181281B390B2F733327C9017F
:1003D0000895FC0184859585FC01E05CFF4F408118
:1003E0005181FC01EE5BFF4F2081318142175307A1
:1003F00041F00190F081E02DE80FF91F208130E0FD
:1004000002C02FEF3FEFC9010895FC018485958557
:10041000FC01E05CFF4F40815181FC01EE5BFF4F2E
:10042000208131814217530781F0A081B181A80F4B
:10043000B91F8C91208131812F5F3F4F2F7333275C
:1004400031832083282F30E002C02FEF3FEFC90116
:100450000895FC0186859785FC01E05CFF4FDC0177
:10046000AE5BBF4F408151812D913C911197421756
:100470005307C1F70895CF93DF93FC0186859785D5
:10048000DC01A05CBF4F2D913C9111972F5F3F4F36
:100490002F733327EC01CE5BDF4F4881598124173E
:1004A0003507D9F30D90BC91A02DA80FB91F6C93FF
:1004B000A685B785A05CBF4F11963C932E93A68965
:1004C000B7892C9181E090E0058C02C0880F991FBC
:1004D0000A94E2F7282B2C9381E090E0DF91CF91F2
:1004E0000895FB01E05CFF4F208131812F5F3F4F7A
:1004F0002F733327DB01AE5BBF4F4D915C91241707
:10050000350739F0A081B181A60FB71F8C933183D5
:100510002083089508951F920F920FB60F92112411
:100520000BB60F922F933F934F935F936F937F93ED
:100530008F939F93AF93BF93EF93FF938091C600E8
:1005400061E774E00E947102FF91EF91BF91AF915A
:100550009F918F917F916F915F914F913F912F91DB
:100560000F900BBE0F900FBE0F901F90189508951F
:100570001F920F920FB60F9211240BB60F922F936A
:100580003F934F935F936F937F938F939F93AF931B
:10059000BF93EF93FF938091CE0069EE73E00E94CA
:1005A0007102FF91EF91BF91AF919F918F917F91D8
:1005B0006F915F914F913F912F910F900BBE0F90D4
:1005C0000FBE0F901F90189508951F920F920FB6AF
:1005D0000F9211240BB60F922F933F934F935F937B
:1005E0006F937F938F939F93AF93BF93EF93FF93FB
:1005F0008091D60061E673E00E947102FF91EF9155
:10060000BF91AF919F918F917F916F915F914F912A
:100610003F912F910F900BBE0F900FBE0F901F9028
:10062000189508951F920F920FB60F9211240BB6D2
:100630000F922F933F934F935F936F937F938F937B
:100640009F93AF93BF93EF93FF938091360169ED32
:1006500072E00E947102FF91EF91BF91AF919F9163
:100660008F917F916F915F914F913F912F910F905B
:100670000BBE0F900FBE0F901F90189586E792E06B
:100680000E94D601892B11F00E948A0287E592E030
:100690000E94D601892B11F00E94B70288E392E0F4
:1006A0000E94D601892B11F00E94E40289E192E0B8
:1006B0000E94D601892B11F00C94110308951F920A
:1006C0000F920FB60F9211240BB60F922F933F93F8
:1006D0008F939F93EF93FF9320916D0430916E045D
:1006E00080916F04909170042817390731F480913C
:1006F000C1008F7D8093C10014C0E0916F04F09120
:100700007004E35DFB4F208180916F049091700431
:1007100001968F7399279093700480936F042093B0
:10072000C600FF91EF919F918F913F912F910F9074
:100730000BBE0F900FBE0F901F9018951F920F9237
:100740000FB60F9211240BB60F922F933F938F93F6
:100750009F93EF93FF932091E5033091E6038091FF
:10076000E7039091E8032817390731F48091C90015
:100770008F7D8093C90014C0E091E703F091E803F6
:10078000EB55FC4F20818091E7039091E80301969F
:100790008F7399279093E8038093E7032093CE000B
:1007A000FF91EF919F918F913F912F910F900BBEF1
:1007B0000F900FBE0F901F9018951F920F920FB6BB
:1007C0000F9211240BB60F922F933F938F939F9309
:1007D000EF93FF9320915D0330915E0380915F035F
:1007E000909160032817390731F48091D1008F7DF3
:1007F0008093D10014C0E0915F03F0916003E35E49
:10080000FC4F208180915F039091600301968F736C
:1008100099279093600380935F032093D600FF9104
:10082000EF919F918F913F912F910F900BBE0F9061
:100830000FBE0F901F9018951F920F920FB60F9238
:1008400011240BB60F922F933F938F939F93EF93A7
:10085000FF932091D5023091D6028091D7029091DA
:10086000D8022817390731F4809131018F7D8093A8
:10087000310114C0E091D702F091D802EB56FD4F40
:1008800020818091D7029091D80201968F73992789
:100890009093D8028093D70220933601FF91EF9175
:1008A0009F918F913F912F910F900BBE0F900FBE94
:1008B0000F901F901895CF92DF92EF92FF92CF93F7
:1008C000DF93EC016A017B01411581EE5807610558
:1008D0007105F9F0EC89FD8981E090E00E8C02C091
:1008E000880F991F0A94E2F7808360E079E08DE336
:1008F00090E0A70196010E94F406215031094109B8
:1009000051095695479537952795211580E1380768
:1009100098F0EC89FD89108260E874E88EE190E03F
:10092000A70196010E94F40621503109410951099D
:100930005695479537952795E889F9893083EA894F
:10094000FB892083EE89FF89408181E090E09C0152
:100950000A8C02C0220F331F0A94E2F7422B408315
:10096000EE89FF8940819C010B8C02C0220F331F4E
:100970000A94E2F7422B4083EE89FF8940819C0173
:100980000C8C02C0220F331F0A94E2F7422B4083E3
:10099000EE89FF8920810D8C02C0880F991F0A946F
:1009A000E2F7809582238083DF91CF91FF90EF90D3
:1009B000DF90CF900895CF93109279021092780231
:1009C00088EE93E0A0E0B0E080937A0290937B02FF
:1009D000A0937C02B0937D0224E032E03093770252
:1009E0002093760241E754E05093830240938202C1
:1009F0004DE254E0509385024093840245EC50E070
:100A0000509387024093860244EC50E05093890251
:100A10004093880240EC50E050938B0240938A024E
:100A200041EC50E050938D0240938C0246EC50E034
:100A300050938F0240938E02C4E0C0939002F3E083
:100A4000F0939102E7E0E093920275E070939302D5
:100A500061E06093940210925A02109259028093BE
:100A60005B0290935C02A0935D02B0935E023093B0
:100A700058022093570249EE53E05093640240938A
:100A8000630245EA53E050936602409365024DECE1
:100A900050E050936802409367024CEC50E0509352
:100AA0006A024093690248EC50E050936C02409314
:100AB0006B0249EC50E050936E0240936D024EEC95
:100AC00050E05093700240936F02C0937102F09314
:100AD0007202E09373027093740260937502109235
:100AE0003B0210923A0280933C0290933D02A09305
:100AF0003E02B0933F02309339022093380241E620
:100B000053E050934502409344024DE153E050932B
:100B100047024093460245ED50E05093490240930E
:100B2000480244ED50E050934B0240934A0240ED9E
:100B300050E050934D0240934C0241ED50E05093F1
:100B40004F0240934E0246ED50E0509351024093C5
:100B50005002C0935202F0935302E09354027093F8
:100B600055026093560210921C0210921B02809351
:100B70001D0290931E02A0931F02B0932002309397
:100B80001A022093190289ED92E090932602809335
:100B9000250285E992E0909328028093270285E35D
:100BA00091E090932A028093290284E391E090934C
:100BB0002C0280932B0280E391E090932E0280938D
:100BC0002D0281E391E09093300280932F0286E31F
:100BD00091E09093320280933102C0933302F093FC
:100BE0003402E09335027093360260933702CF915E
:100BF0000895CF92DF92EF92FF920F931F93CF93BE
:100C0000DF936C01EB017A01E60EF71E00E010E0C5
:100C10000BC06991D601ED91FC910190F081E02D1E
:100C2000C6011995080F191FCE15DF0591F7C801E8
:100C3000DF91CF911F910F91FF90EF90DF90CF90B8
:100C40000895DB010D900020E9F7AD0141505109F5
:100C5000461B570BDC01ED91FC910280F381E02DE6
:100C60001994DC01ED91FC910190F081E02D199433
:100C70004F925F926F927F929F92AF92BF92CF926C
:100C8000DF92EF92FF920F931F93CF93DF93CDB735
:100C9000DEB7A1970FB6F894DEBF0FBECDBF5C01E3
:100CA0006A017B01922E19A281E0821710F08AE07E
:100CB000982E8E010F5D1F4F492C512C612C712CE9
:100CC000C701B601A30192010E94F4068C2D929EE9
:100CD00080191124015011098A3014F4805D01C07B
:100CE000895CF801808369017A01C114D104E104AF
:100CF000F10431F7B801C5010E942106A1960FB693
:100D0000F894DEBF0FBECDBFDF91CF911F910F9141
:100D1000FF90EF90DF90CF90BF90AF909F907F902B
:100D20006F905F904F900895CF92DF92EF92FF9275
:100D30000F931F93CF93DF93EC016A017B01211581
:100D4000310579F4E881F9810190F081E02D642F7B
:100D5000DF91CF911F910F91FF90EF90DF90CF9097
:100D600019942A30310519F477FD0EC02AE0B70135
:100D7000A601CE01DF91CF911F910F91FF90EF90CF
:100D8000DF90CF900C9438066DE20E9431068C0102
:100D900044275527BA014C195D096E097F092AE0DD
:100DA000CE010E943806080F191FC801DF91CF91AC
:100DB0001F910F91FF90EF90DF90CF9008959A01CF
:100DC000AB01662757FD6095762F0C9494060E9420
:100DD00074010E94A600CEE3D3E00E94C8002097D1
:100DE000E1F30E943E03F9CFA1E21A2EAA1BBB1B1E
:100DF000FD010DC0AA1FBB1FEE1FFF1FA217B307E7
:100E0000E407F50720F0A21BB30BE40BF50B661FFC
:100E1000771F881F991F1A9469F7609570958095C0
:100E200090959B01AC01BD01CF0108950790F6910B
:080E3000E02D1994F894FFCFA6
:100E3800000000003B02F905D6010502E90129027C
:00000001FF
